:020000040000FA
:100000000C9462000C948A000C948A000C948A0070
:100010000C948A000C948A000C948A000C948A0038
:100020000C948A000C948A000C948A000C94290584
:100030000C948A000C948A000C948A000C948A0018
:100040000C9487040C948A000C94F7040C94D1044B
:100050000C948A000C948A000C948A000C948A00F8
:100060000C948A000C948A000000000023002600F3
:10007000290000000000240027002A0000000000E2
:10008000250028002B0004040404040404040202D4
:100090000202020203030303030301020408102007
:1000A0004080010204081020010204081020000012
:1000B0000008000201000003040700000000000027
:1000C0000000450611241FBECFEFD8E0DEBFCDBF34
:1000D00011E0A0E0B1E0E6EFFDE102C005900D9275
:1000E000AA34B107D9F722E0AAE4B1E001C01D9219
:1000F000A732B207E1F710E0C2E6D0E004C02197D2
:10010000FE010E94E80CC136D107C9F70E947D06A6
:100110000C94F90E0C94000090E0FC01E255FF4FA6
:100120002491FC01E656FF4F3491FC01EA57FF4F42
:10013000E491EE23C9F0222339F0233001F1A8F431
:10014000213019F1223029F1F0E0EE0FFF1FE458C1
:10015000FF4FA591B4918FB7F894EC91611126C02F
:1001600030953E233C938FBF08952730A9F0283067
:10017000C9F0243049F7809180008F7D03C08091C1
:1001800080008F7780938000DFCF84B58F7784BD28
:10019000DBCF84B58F7DFBCF8091B0008F778093CC
:1001A000B000D2CF8091B0008F7DF9CF3E2BDACF57
:1001B000CF93DF9390E0FC01E656FF4F24918A57DE
:1001C0009F4FFC0184918823D1F090E0880F991F04
:1001D000FC01EE58FF4FA591B491FC01E458FF4F8C
:1001E000C591D49161110EC09FB7F8948C91E22F04
:1001F000E0958E238C932881E223E8839FBFDF91D3
:10020000CF9108958FB7F894EC91E22BEC938FBFC8
:10021000F6CF1F93CF93DF93EC01162F88818C309C
:1002200008F04FC061E0812F0E94D8008881282FFC
:1002300030E0F901EE0FFF1FE20FF31FE75AFE4F08
:100240001F736081607C612B60839BE099831A82BD
:100250002CE0622F0E94DC0C829FB001112430E060
:1002600020E0AB01420F531FFA01EE0FFF1FE40F16
:10027000F51FE75AFE4F908196FD16C02F5F3F4F46
:100280002C30310571F781110FC01092800082E08F
:10029000809381001092850010928400B19A809121
:1002A0006F00826080936F00E8818E2F90E0FC01E8
:1002B000EE0FFF1FE80FF91FE75AFE4F80818064A1
:1002C00080838881DF91CF911F9108950895AF9227
:1002D000BF92CF92DF92EF92FF920F931F93CF9333
:1002E000DF936C017B018B01040F151FEB015E0195
:1002F000AE18BF08C017D10759F06991D601ED912A
:10030000FC910190F081E02DC6010995892B79F7C8
:10031000C501DF91CF911F910F91FF90EF90DF907A
:10032000CF90BF90AF900895FC01538D448D252F41
:1003300030E0842F90E0821B930B541710F0CF967F
:10034000089501970895FC01918D828D981761F0B1
:10035000A28DAE0FBF2FB11D5D968C91928D9F5FC8
:100360009F73928F90E008958FEF9FEF08952FB7BE
:10037000F8948091550190915601A0915701B09148
:1003800058012FBF8093850190938601A093870128
:10039000B09388018DE791E00E94A30197FF26C0EA
:1003A0002FB7F8948091550190915601A091570173
:1003B000B09158012FBF4091850150918601609105
:1003C000870170918801841B950BA60BB70B409198
:1003D00081015091820160918301709184018417A1
:1003E0009507A607B707B0F28FEF9FEF0895FC01BE
:1003F000918D828D981731F0828DE80FF11D858DDA
:1004000090E008958FEF9FEF0895FC01918D228D6C
:10041000892F90E0805C9F4F821B91098F739927F1
:1004200008958DE791E00E94050221E0892B09F4EF
:1004300020E0822F089580E090E0892B29F00E942F
:10044000110281110C9400000895FC01A48DA80FE5
:10045000B92FB11DA35ABF4F2C91848D90E0019606
:100460008F739927848FA689B7892C93A089B18926
:100470008C91837080648C93938D848D981306C0C7
:100480000288F389E02D80818F7D80830895EF922B
:10049000FF920F931F93CF93DF93EC0181E0888F3E
:1004A0009B8D8C8D98131AC0E889F989808185FF0E
:1004B00015C09FB7F894EE89FF896083E889F989B0
:1004C00080818370806480839FBF81E090E0DF91B2
:1004D000CF911F910F91FF90EF900895F62E0B8D05
:1004E00010E00F5F1F4F0F731127E02E8C8D8E11C0
:1004F0000CC00FB607FCFACFE889F989808185FF27
:10050000F5CFCE010E942502F1CFEB8DEC0FFD2F30
:10051000F11DE35AFF4FF0829FB7F8940B8FEA89E1
:10052000FB8980818062CFCFCF93DF93EC01888DF0
:100530008823B9F0AA89BB89E889F9898C9185FD5E
:1005400003C0808186FD0DC00FB607FCF7CF8C91EC
:1005500085FFF2CF808185FFEDCFCE010E9425027D
:10056000E9CFDF91CF910895CF92DF92EF92FF9282
:10057000CF93DF93EC01603282E07807CCF5653BE6
:10058000710514F064EB70E0898128E830E0281BE5
:10059000310987FD3395220F331F220F331F690165
:1005A000330FEE08FF088A8128E532E0281B310965
:1005B00087FD3395220F331F220F331F032E000CAC
:1005C000440B550B2C193D094E095F09DB0177FFE0
:1005D00002C0B0E0A0E00E94C60B24EB30E040E097
:1005E00050E00E949C0BC20ED31EE41EF51EB60105
:1005F000E881EC3070F5298188E890E0821B910950
:1006000027FD9395880F991F880F991F6817790701
:100610007CF02A8188E592E0821B910927FD939561
:10062000880F991F880F991F681779070CF4CB0161
:100630000297880F991F4FB7F8942E2F30E0F901D9
:10064000EE0FFF1FE20FF31FE75AFE4F92838183E5
:100650004FBFDF91CF91FF90EF90DF90CF90089543
:10066000609104017091050180E292E00E94B40261
:1006700060910201709103018DE192E00E94B40249
:1006800060910001709101018AE192E00C94B40242
:10069000FC0101900020E9F73197AF01481B590B8D
:1006A000BC018DE791E00C9467018F929F92AF920D
:1006B000BF920F931F93CF93DF93CDB7DEB7A19770
:1006C0000FB6F894DEBF0FBECDBF19A2423008F4BA
:1006D0004AE08E010F5D1F4F842E912CB12CA12C6E
:1006E000A50194010E94050CE62FB901CA01EA3068
:1006F000F4F4E05DD801EE938D01232B242B252B00
:1007000079F790E080E0109719F0CD010E9448033E
:10071000A1960FB6F894DEBF0FBECDBFDF91CF918B
:100720001F910F91BF90AF909F908F900895E95CBB
:10073000E1CFCF92DF92EF92FF92CF93DF9397FFBB
:100740001BC06B017C016DE28DE791E00E944702C6
:10075000EC0166277727CB016C197D098E099F096B
:100760004AE00E9455038C0F9D1FDF91CF91FF90AF
:10077000EF90DF90CF9008954AE0DF91CF91FF9006
:10078000EF90DF90CF900C945503FC018081918114
:10079000009711F00C948A0D08950F931F93CF9337
:1007A000DF93EC0188819981009759F02A813B8180
:1007B0002617370730F081E0DF91CF911F910F911D
:1007C00008958B016F5F7F4F0E94130E009759F0C1
:1007D000998388831B830A832C813D81232B59F7BE
:1007E000FC011082E8CF80E0E7CFEF92FF920F93F9
:1007F0001F93CF93DF93EC017B018A01BA010E9422
:10080000CD0328813981811114C02115310519F0DA
:10081000C9010E948A0D198218821D821C821B82C6
:100820001A82CE01DF91CF911F910F91FF90EF902F
:1008300008951D830C83B701C9010E94E40EF1CF16
:10084000AF92BF92CF92DF92EF92FF920F931F93DE
:10085000CF93DF93EC016B015A017901241735071F
:1008600020F48B2D5901E42EF82E198218821B8258
:100870001A821D821C8250E040E062E371E0CE01EA
:100880000E94F503D60114960D911C91A016B10695
:1008900028F5E016F10608F48701D601ED91FC91E8
:1008A0001197E00FF11FF08010826D917C916A0D1D
:1008B0007B1D61157105F1F0FB0101900020E9F746
:1008C0003197AF01461B570BCE010E94F503F6018D
:1008D00080819181080F191FD801FC92CE01DF9110
:1008E000CF911F910F91FF90EF90DF90CF90BF902D
:1008F000AF90089588819981009711F00E948A0D28
:10090000198218821D821C821B821A82E0CF1F92DC
:100910000F920FB60F9211242F933F938F939F93B3
:10092000AF93BF938091550190915601A0915701CB
:10093000B09158013091540123E0230F2D3758F521
:100940000196A11DB11D20935401809355019093F0
:100950005601A0935701B093580180915001909196
:100960005101A0915201B09153010196A11DB11DF9
:100970008093500190935101A0935201B093530181
:10098000BF91AF919F918F913F912F910F900FBE8B
:100990000F901F90189526E8230F0296A11DB11DF8
:1009A000D2CF1F920F920FB60F9211242F933F9325
:1009B0004F935F936F937F938F939F93AF93BF9367
:1009C000EF93FF938DE791E00E942502FF91EF9155
:1009D000BF91AF919F918F917F916F915F914F9157
:1009E0003F912F910F900FBE0F901F9018951F925F
:1009F0000F920FB60F9211242F938F939F93EF9323
:100A0000FF93E0918D01F0918E018081E09193013F
:100A1000F091940182FD1BC09081809196018F5FBF
:100A20008F7320919701821741F0E0919601F0E0D9
:100A3000E358FE4F958F80939601FF91EF919F9120
:100A40008F912F910F900FBE0F901F90189580815E
:100A5000F4CF1F920F920FB60F9211242F933F9352
:100A60004F935F936F937F938F939F93AF93BF93B6
:100A7000CF93DF93EF93FF9380914A01C0914B0195
:100A8000D0E087FF24C010928500109284008091EE
:100A90004A018F5F80934A0180914A01082E000C21
:100AA000990B8C179D0724F480914A018C30C4F176
:100AB0008091840090918500049680349C4908F4CC
:100AC0007AC08091840090918500049676C08091D0
:100AD0004A01082E000C990B8C179D07C4F6E09173
:100AE0004A018E2FEE0F990BFC01EE0FFF1FE80F4E
:100AF000F91FE75AFE4F808186FFC9CFE0914A0176
:100B00008E2FEE0F990BFC01EE0FFF1FE80FF91F60
:100B1000E75AFE4F808160E08F730E948C00B7CF50
:100B20002091840030918500E0914A018E2FEE0FD4
:100B3000990BFC01EE0FFF1FE80FF91FE75AFE4F5C
:100B400081819281820F931F909389008093880006
:100B5000E0914A018E2FEE0F990BFC01EE0FFF1F63
:100B6000E80FF91FE75AFE4F808186FF11C0E09120
:100B70004A018E2FEE0F990BFC01EE0FFF1FE80FBD
:100B8000F91FE75AFE4F808161E08F730E948C004D
:100B9000FF91EF91DF91CF91BF91AF919F918F9195
:100BA0007F916F915F914F913F912F910F900FBE69
:100BB0000F901F90189580E49CE990938900809392
:100BC00088008FEF80934A01E3CFCF92DF92EF92BC
:100BD000FF920F931F93E82FF92F05C001501109C1
:100BE0002109310961F1908196239417B9F305C069
:100BF000015011092109310911F1908196239413B3
:100C0000F7CFC12CD12CE12CF12C0AC08FEFC81AE0
:100C1000D80AE80AF80A0C151D052E053F0579F0DB
:100C200080818623841791F36C2D7D2D8E2D9F2D31
:100C30001F910F91FF90EF90DF90CF90089560E0AB
:100C400070E080E090E01F910F91FF90EF90DF90B7
:100C5000CF900895FC0190914B019C3098F481E075
:100C6000890F80934B019083892F90E0FC01EE0F58
:100C7000FF1FE80FF91FE75AFE4F88EB9BE09283B6
:100C8000818308958FEF80830895EDE7F1E013826B
:100C9000128288EE93E0A0E0B0E084839583A6837F
:100CA000B78380E191E09183808385EC90E0958724
:100CB000848784EC90E09787868780EC90E0918B26
:100CC000808B81EC90E0938B828B82EC90E0958B13
:100CD000848B86EC90E0978B868B118E128E138E10
:100CE000148E80E292E00E942A068DE192E00E943A
:100CF0002A068AE192E00C942A06CF93DF93CDB7BF
:100D0000DEB762970FB6F894DEBF0FBECDBF789402
:100D100084B5826084BD84B5816084BD85B5826000
:100D200085BD85B5816085BD80916E0081608093B1
:100D30006E0010928100809181008260809381001A
:100D4000809181008160809381008091800081602A
:100D5000809380008091B10084608093B100809185
:100D6000B00081608093B00080917A0084608093AD
:100D70007A0080917A00826080937A0080917A0074
:100D8000816080937A0080917A00806880937A00F5
:100D90001092C100E0918D01F0918E0182E080837C
:100DA000E0918901F0918A011082E0918B01F0912C
:100DB0008C0180E1808310929501E0919101F09186
:100DC000920186E08083E0918F01F0919001808113
:100DD00080618083E0918F01F09190018081886033
:100DE0008083E0918F01F091900180818068808301
:100DF000E0918F01F091900180818F7D808362E08E
:100E000070E080E292E00E94090163E070E08DE111
:100E100092E00E94090164E070E08AE192E00E94A1
:100E200009010E94300361E088E00E94D80060E080
:100E300089E00E94D8008EE191E00E94480380E39F
:100E400091E00E94480353E0452E512C40E0642E6F
:100E500040E0742E8DE791E00E94050218161906F5
:100E60000CF04FC11E861D86188A1F861A8A198AA1
:100E700050E040E062E371E0CE010D960E94F50380
:100E80000E94B70197FD1EC08A309105D9F0898371
:100E90001A8209891A890F5F1F4FB801CE010D967A
:100EA0000E94CD03882361F32D853E8589899A8927
:100EB000BE016F5F7F4F820F931F0E94E40E1A8B5B
:100EC000098BDECF18861F821A8619861C861B8620
:100ED0006D857E856115710531F049895A89CE018C
:100EE00007960E94F503CF80D884C114D10439F04D
:100EF0000B851C8576010115110509F0C7C11A8201
:100F000019821C821B821E821D8242E050E063E334
:100F100071E0CE0101960E94F5034D815E818B85C3
:100F20009C858417950770F08F819885009751F004
:100F300069817A816115710529F00E94EB0E11E03B
:100F4000892B09F010E0CE0101960E94C503112300
:100F500009F4CFC02B853C8542E050E0BE01695FBB
:100F60007F4FCE0101960E9420048F8198850097C3
:100F700009F4C4C169817A816115710509F4BCC1A4
:100F800049855A852D813E814217530708F4B4C123
:100F90000E94E40E8D819E819C878B871E821D821C
:100FA000CE0101960E94C5030B851C850115110514
:100FB00061F0CF80D8846CE270E0C6010E94D90E47
:100FC0007C01EC18FD08892B19F4EE24EA94FE2C20
:100FD0006701FFEFCF1ADF0AC016D10608F089C0FB
:100FE0008F8098846CE270E0C4018C0D9D1D0E947E
:100FF000D90E009709F47DC01E141F040CF079C0AF
:101000008C0108191909101611060CF072C097010D
:1010100050E040E0BE01695F7F4FCE0101960E9423
:10102000200489819A81009709F479C10E94300ACD
:101030004B01CE0101960E94C5039801A601BE0195
:10104000695F7F4FCE0101960E94200489819A81B9
:10105000009709F468C10E94300A1B01CE01019675
:101060000E94C5032B853C85A8014F5F5F4FBE01E1
:10107000695F7F4FCE0101960E94200489819A8189
:10108000C12CD12C7601009719F00E94300A6B0117
:10109000CE0101960E94C503C401853B910514F061
:1010A00084EB90E097FF02C090E080E09093050110
:1010B00080930401C101853B910514F084EB90E01D
:1010C00097FF02C090E080E09093030180930201BB
:1010D00085EBC816D1041CF024EBC22ED12CD7FE10
:1010E00002C0D12CC12CD0920101C09200010E94FB
:1010F0003003CE0107960E94C503CE010D960E94D3
:10110000C5032FB7F8948091550190915601A09195
:101110005701B09158012FBF40914C0150914D01A2
:1011200060914E0170914F01841B950BA60BB70B7C
:1011300085369105A105B10508F49BC060E088E003
:101140000E948C00C2010197F1F761E088E00E94E3
:101150008C0083E290E00197F1F760E088E00E9464
:101160008C00E3EAF0E06491EFE8F0E08491E82F8E
:10117000F0E0EE0FFF1FE859FF4F8591949100E1D9
:1011800017E220E030E0462F0E94E5056115710569
:101190008105910509F4CBC06F5F7F4F8F4F9F4F43
:1011A0009F70611571058105910509F4C0C00E9409
:1011B0007C0A28E23EE74CE05DE30E94DB0A20E087
:1011C00030E040E05FE30E94DB0A6B017C0186E3D4
:1011D00091E00E9448036091040170910501072E7F
:1011E000000C880B990B0E9499038CE391E00E94FC
:1011F00048036091020170910301072E000C880BD7
:10120000990B0E9499038CE391E00E94480360913E
:10121000000170910101072E000C880B990B0E94B0
:1012200099038CE391E00E944803A7019601C7014E
:10123000B6010E94D70C882309F480C08EE391E0A8
:101240000E94480380E391E00E9448032FB7F8947E
:101250008091550190915601A0915701B09158018C
:101260002FBF80934C0190934D01A0934E01B093FA
:101270004F016114710409F4EDCD0E94110288231D
:1012800009F4E4CD0E940000E1CD740147018FEF25
:10129000881A980AF7018081082E000C990B0E9489
:1012A0006C0A892B91F7015011090C0D1D1DF801D5
:1012B0008081082E000C990B0E946C0A892B31F05A
:1012C0000E151F0518F001501109F1CF0F5F1F4FC8
:1012D000A8014E195F095C874B87CE14DF0420F408
:1012E000B701C6010E94D00EEF81F8858B859C85E1
:1012F000E80FF91F108203CE0E948A0D89819A811E
:1013000098878F838B819C819A8789878D819E8125
:101310009C878B871A8219821C821B823FCE60E0D9
:1013200070E0CB0185CE60E070E0CB0196CEC12CA1
:10133000D12C80E8E82E8FEBF82E49CF46015701DB
:10134000E894B7F82FEF3FEF4FE75FE7C501B4012F
:101350000E94D70C81110DC02FEF3FEF4FE75FE7E1
:10136000C501B4010E94750A18161CF482E491E0CC
:1013700067CF2FEF3FEF4FE75FE4C701B6010E9451
:10138000D20C18161CF486E491E05ACF2FEF3FEFF1
:101390004FE75FECC701B6010E94750A87FDF3CFE6
:1013A00020E030E0A901C701B6010E94750A87FF5D
:1013B00009C06DE28DE791E00E944702F7FAF094D0
:1013C000F7F8F0942AE037ED43EA5BE3C701B60192
:1013D0000E94370C4B015C010E94A30C6B017C0145
:1013E0000E947A0A9B01AC01C501B4010E94360C2F
:1013F0004B015C014AE0C701B6010E9455036EE251
:101400008DE791E00E94470220E030E040E251E4A5
:10141000C501B4010E94DB0A4B015C010E94A30CD0
:101420006B01F12CE12C4AE0C701B6010E94550383
:10143000C701B6010E947A0A9B01AC01C501B40143
:101440000E94360C20E030E040E251E40E94DB0ACA
:101450000E94A30C90E080E04AE00E945503F2CE87
:101460001F93FC0199278827BC01E8941191103241
:10147000E9F3193010F01E30C8F31B3251F01D3261
:1014800049F4689406C00E94570A610F711D811DBE
:10149000911D119110531A30B0F33EF49095809540
:1014A000709561957F4F8F4F9F4F1F910895592FD2
:1014B000482F372F262F660F771F881F991F660F1B
:1014C000771F881F991F620F731F841F951F660F58
:1014D000771F881F991F089591110C94480B803233
:1014E00019F089508550C8F708950E94B70A08F48A
:1014F00081E00895E89409C097FB3EF490958095AB
:10150000709561957F4F8F4F9F4F9923A9F0F92FC9
:1015100096E9BB279395F695879577956795B79547
:10152000F111F8CFFAF4BB0F11F460FF1BC06F5F2D
:101530007F4F8F4F9F4F16C0882311F096E911C03F
:10154000772321F09EE8872F762F05C0662371F060
:1015500096E8862F70E060E02AF09A95660F771F74
:10156000881FDAF7880F9695879597F90895990F50
:101570000008550FAA0BE0E8FEEF16161706E8075D
:10158000F907C0F012161306E407F50798F0621B7E
:10159000730B840B950B39F40A2661F0232B242B53
:1015A000252B21F408950A2609F4A140A6958FEF72
:1015B000811D811D08950E94EE0A0C94620B0E9409
:1015C000540B38F00E945B0B20F0952311F00C9423
:1015D0004B0B0C94510B11240C94960B0E94730B23
:1015E00070F3959FC1F3950F50E0551F629FF00176
:1015F000729FBB27F00DB11D639FAA27F00DB11D8F
:10160000AA1F649F6627B00DA11D661F829F222717
:10161000B00DA11D621F739FB00DA11D621F839F9E
:10162000A00D611D221F749F3327A00D611D231F74
:10163000849F600D211D822F762F6A2F11249F57C2
:1016400050409AF0F1F088234AF0EE0FFF1FBB1FC5
:10165000661F771F881F91505040A9F79E3F510584
:1016600080F00C944B0B0C94960B5F3FE4F3983E88
:10167000D4F3869577956795B795F795E7959F5F2E
:10168000C1F7FE2B880F911D9695879597F90895C0
:1016900099278827089597F99F6780E870E060E0B0
:1016A00008959FEF80EC089500240A9416161706FB
:1016B00018060906089500240A9412161306140643
:1016C00005060895092E0394000C11F4882352F0A6
:1016D000BB0F40F4BF2B11F460FF04C06F5F7F4F5E
:1016E0008F4F9F4F089557FD9058440F551F59F045
:1016F0005F3F71F04795880F97FB991F61F09F3FFF
:1017000079F087950895121613061406551FF2CF27
:101710004695F1DF08C0161617061806991FF1CF77
:1017200086957105610508940895E894BB2766279E
:101730007727CB0197F90895052E97FB1EF40094A7
:101740000E94B30B57FD07D00E94050C07FC03D085
:101750004EF40C94B30B50954095309521953F4F26
:101760004F4F5F4F089590958095709561957F4F8D
:101770008F4F9F4F08950E94270CA59F900DB49FF7
:10178000900DA49F800D911D11240895B7FF0C9416
:10179000BB0B0E94BB0B821B930B08952F923F92B1
:1017A0004F925F926F927F928F929F92AF92BF9271
:1017B000CF92DF92EF92FF920F931F93CF93DF931D
:1017C000CDB7DEB7CA1BDB0B0FB6F894DEBF0FBE7A
:1017D000CDBF09942A88398848885F846E847D84C7
:1017E0008C849B84AA84B984C884DF80EE80FD80C9
:1017F0000C811B81AA81B981CE0FD11D0FB6F8943F
:10180000DEBF0FBECDBFED010895A1E21A2EAA1BC7
:10181000BB1BFD010DC0AA1FBB1FEE1FFF1FA217A0
:10182000B307E407F50720F0A21BB30BE40BF50B9D
:10183000661F771F881F991F1A9469F76095709526
:10184000809590959B01AC01BD01CF010895A29FA9
:10185000B001B39FC001A39F700D811D1124911D84
:10186000B29F700D811D1124911D08955058BB2702
:10187000AA270E944E0C0C94620B0E94540B38F065
:101880000E945B0B20F039F49F3F19F426F40C946E
:10189000510B0EF4E095E7FB0C944B0BE92F0E94E3
:1018A000730B58F3BA17620773078407950720F084
:1018B00079F4A6F50C94950B0EF4E0950B2EBA2F47
:1018C000A02D0B01B90190010C01CA01A001112446
:1018D000FF27591B99F0593F50F4503E68F11A16F2
:1018E000F040A22F232F342F4427585FF3CF469583
:1018F00037952795A795F0405395C9F77EF41F16A5
:10190000BA0B620B730B840BBAF09150A1F0FF0F6E
:10191000BB1F661F771F881FC2F70EC0BA0F621F5A
:10192000731F841F48F4879577956795B795F7954A
:101930009E3F08F0B0CF9395880F08F09927EE0FDF
:101940009795879508950E947B0B88F09F5798F094
:10195000B92F9927B751B0F0E1F0660F771F881FB4
:10196000991F1AF0BA95C9F714C0B13091F00E94CE
:10197000950BB1E008950C94950B672F782F88276D
:10198000B85F39F0B93FCCF3869577956795B395F5
:10199000D9F73EF490958095709561957F4F8F4F64
:1019A0009F4F08950E94B70A08F48FEF08950E9490
:1019B000B70A880B990B0895991B79E004C0991F09
:1019C000961708F0961B881F7A95C9F78095089599
:1019D000EE0FFF1F0590F491E02D09940F931F93D4
:1019E000CF93DF938230910510F482E090E0E09194
:1019F0002502F091260230E020E0B0E0A0E0309730
:101A000099F42115310509F44AC0281B390B2430FB
:101A10003105D8F58A819B816115710589F1FB013A
:101A200093838283FE0111C0408151810281138121
:101A300048175907E0F04817590799F4109761F0D3
:101A400012960C93129713961C933296CF01DF9146
:101A5000CF911F910F9108950093250210932602B4
:101A6000F4CF2115310551F04217530738F0A90181
:101A7000DB019A01BD01DF01F801C1CFEF01F9CF10
:101A80009093260280932502CDCFFE01E20FF31F33
:101A9000819391932250310939832883D7CF2091A4
:101AA000230230912402232B41F42091080130912C
:101AB00009013093240220932302209106013091E2
:101AC00007012115310541F42DB73EB740910A01B8
:101AD00050910B01241B350BE0912302F09124025D
:101AE000E217F307A0F42E1B3F0B2817390778F0F5
:101AF000AC014E5F5F4F2417350748F04E0F5F1F54
:101B00005093240240932302819391939FCFF0E05E
:101B1000E0E09CCFCF93DF930097E9F0FC01329790
:101B200013821282A0912502B0912602ED0130E0CD
:101B300020E01097A1F420813181820F931F209122
:101B40002302309124022817390709F061C0F0936D
:101B50002402E0932302DF91CF910895EA01CE178A
:101B6000DF07E8F54A815B819E0141155105B1F718
:101B7000E901FB83EA8349915991C40FD51FEC1702
:101B8000FD0761F4808191810296840F951FE90120
:101B900099838883828193819B838A83F0E0E0E04C
:101BA00012968D919C9113970097B9F52D913C91C8
:101BB0001197CD010296820F931F2091230230913D
:101BC00024022817390739F6309751F5109226026A
:101BD00010922502B0932402A0932302BCCFD3839A
:101BE000C28340815181840F951FC817D90761F4C2
:101BF0004E5F5F4F88819981480F591F5183408301
:101C00008A819B81938382832115310509F0B0CFAE
:101C1000F0932602E09325029ECFFD01DC01C0CFA8
:101C200013821282D7CFB0E0A0E0E9E1FEE00C948D
:101C3000D00B8C01009751F4CB010E94EE0C8C016B
:101C4000C801CDB7DEB7E0E10C94EC0BFC01E60F68
:101C5000F71F9C0122503109E217F30708F49DC0D9
:101C6000D901CD91DC911197C617D70798F0C530EF
:101C7000D10530F3CE0104978617970708F3C61BEA
:101C8000D70B2297C193D1936D937C93CF010E9480
:101C90008A0DD6CF5B01AC1ABD0A4C018C0E9D1E7D
:101CA000A0912502B0912602512C412CF12CE12C5F
:101CB000109731F58091230290912402881599059F
:101CC00009F05CC04616570608F058C0809106011E
:101CD00090910701009741F48DB79EB740910A019A
:101CE00050910B01841B950BE817F90708F055C0BC
:101CF000F0932402E0932302F90171836083A0CF63
:101D00008D919C91119712966C90129713967C90DE
:101D10001397A815B90559F56C0142E0C40ED11C02
:101D2000CA14DB0420F1AC014A195B09DA011296EE
:101D3000159780F06282738251834083D9016D933D
:101D40007C93E114F10471F0D7011396FC93EE93A8
:101D5000129776CF22968C0F9D1FF9019183808375
:101D6000F301EFCFF0932602E093250269CF4816E6
:101D7000590608F42C017D01D3019ACFCB010E94B2
:101D8000EE0C7C01009749F0AE01B8010E94D00E24
:101D9000C8010E948A0D870153CF10E000E050CFA8
:101DA000FB01DC0102C001900D9241505040D8F778
:101DB0000895FC018191861721F08823D9F799278E
:101DC00008953197CF010895FB01DC0101900D9238
:101DD0000020E1F70895FB01DC014150504030F054
:101DE0008D910190801919F40020B9F7881B990B87
:101DF0000895F894FFCF5A005A005A0000002702B5
:101E0000800000000000470267019401940205026F
:101E1000A301F70152454144593A43616C63756C23
:101E2000757341726D000D0A00533A0044415441EC
:101E30003A002C006E616E00696E66006F76660077
:107E0000112484B714BE81FFF0D085E080938100F7
:107E100082E08093C00088E18093C10086E0809377
:107E2000C20080E18093C4008EE0C9D0259A86E02C
:107E300020E33CEF91E0309385002093840096BBD3
:107E4000B09BFECF1D9AA8958150A9F7CC24DD24C4
:107E500088248394B5E0AB2EA1E19A2EF3E0BF2EE7
:107E6000A2D0813461F49FD0082FAFD0023811F036
:107E7000013811F484E001C083E08DD089C08234E0
:107E800011F484E103C0853419F485E0A6D080C0E4
:107E9000853579F488D0E82EFF2485D0082F10E0AE
:107EA000102F00270E291F29000F111F8ED06801E7
:107EB0006FC0863521F484E090D080E0DECF843638
:107EC00009F040C070D06FD0082F6DD080E0C81688
:107ED00080E7D80618F4F601B7BEE895C0E0D1E017
:107EE00062D089930C17E1F7F0E0CF16F0E7DF06D8
:107EF00018F0F601B7BEE89568D007B600FCFDCFD4
:107F0000A601A0E0B1E02C9130E011968C91119780
:107F100090E0982F8827822B932B1296FA010C0160
:107F200087BEE89511244E5F5F4FF1E0A038BF0790
:107F300051F7F601A7BEE89507B600FCFDCF97BE46
:107F4000E89526C08437B1F42ED02DD0F82E2BD052
:107F50003CD0F601EF2C8F010F5F1F4F84911BD097
:107F6000EA94F801C1F70894C11CD11CFA94CF0C13
:107F7000D11C0EC0853739F428D08EE10CD085E9AC
:107F80000AD08FE07ACF813511F488E018D01DD067
:107F900080E101D065CF982F8091C00085FFFCCF94
:107FA0009093C60008958091C00087FFFCCF809118
:107FB000C00084FD01C0A8958091C6000895E0E648
:107FC000F0E098E1908380830895EDDF803219F02E
:107FD00088E0F5DFFFCF84E1DECF1F93182FE3DFCA
:107FE0001150E9F7F2DF1F91089580E0E8DFEE27F6
:047FF000FF270994CA
:027FFE00040479
:00000001FF
